{
  "contractName": "CryptoBirdz",
  "abi": [
    {
      "inputs": [],
      "stateMutability": "nonpayable",
      "type": "constructor"
    },
    {
      "anonymous": false,
      "inputs": [
        {
          "indexed": true,
          "internalType": "address",
          "name": "_owner",
          "type": "address"
        },
        {
          "indexed": true,
          "internalType": "address",
          "name": "_approved",
          "type": "address"
        },
        {
          "indexed": true,
          "internalType": "uint256",
          "name": "_tokenId",
          "type": "uint256"
        }
      ],
      "name": "Approval",
      "type": "event"
    },
    {
      "anonymous": false,
      "inputs": [
        {
          "indexed": true,
          "internalType": "address",
          "name": "_from",
          "type": "address"
        },
        {
          "indexed": true,
          "internalType": "address",
          "name": "_to",
          "type": "address"
        },
        {
          "indexed": true,
          "internalType": "uint256",
          "name": "_tokenId",
          "type": "uint256"
        }
      ],
      "name": "Transfer",
      "type": "event"
    },
    {
      "inputs": [
        {
          "internalType": "address",
          "name": "_owner",
          "type": "address"
        }
      ],
      "name": "balanceOf",
      "outputs": [
        {
          "internalType": "uint256",
          "name": "",
          "type": "uint256"
        }
      ],
      "stateMutability": "view",
      "type": "function",
      "constant": true
    },
    {
      "inputs": [
        {
          "internalType": "uint256",
          "name": "",
          "type": "uint256"
        }
      ],
      "name": "cryptoBirdz",
      "outputs": [
        {
          "internalType": "string",
          "name": "",
          "type": "string"
        }
      ],
      "stateMutability": "view",
      "type": "function",
      "constant": true
    },
    {
      "inputs": [],
      "name": "name",
      "outputs": [
        {
          "internalType": "string",
          "name": "",
          "type": "string"
        }
      ],
      "stateMutability": "view",
      "type": "function",
      "constant": true
    },
    {
      "inputs": [
        {
          "internalType": "uint256",
          "name": "_tokenId",
          "type": "uint256"
        }
      ],
      "name": "ownerOf",
      "outputs": [
        {
          "internalType": "address",
          "name": "",
          "type": "address"
        }
      ],
      "stateMutability": "view",
      "type": "function",
      "constant": true
    },
    {
      "inputs": [
        {
          "internalType": "bytes4",
          "name": "interfaceId",
          "type": "bytes4"
        }
      ],
      "name": "supportsInterface",
      "outputs": [
        {
          "internalType": "bool",
          "name": "",
          "type": "bool"
        }
      ],
      "stateMutability": "view",
      "type": "function",
      "constant": true
    },
    {
      "inputs": [],
      "name": "symbol",
      "outputs": [
        {
          "internalType": "string",
          "name": "",
          "type": "string"
        }
      ],
      "stateMutability": "view",
      "type": "function",
      "constant": true
    },
    {
      "inputs": [
        {
          "internalType": "uint256",
          "name": "index",
          "type": "uint256"
        }
      ],
      "name": "tokenByIndex",
      "outputs": [
        {
          "internalType": "uint256",
          "name": "",
          "type": "uint256"
        }
      ],
      "stateMutability": "view",
      "type": "function",
      "constant": true
    },
    {
      "inputs": [
        {
          "internalType": "address",
          "name": "owner",
          "type": "address"
        },
        {
          "internalType": "uint256",
          "name": "index",
          "type": "uint256"
        }
      ],
      "name": "tokenOfOwnerByIndex",
      "outputs": [
        {
          "internalType": "uint256",
          "name": "",
          "type": "uint256"
        }
      ],
      "stateMutability": "view",
      "type": "function",
      "constant": true
    },
    {
      "inputs": [],
      "name": "totalSupply",
      "outputs": [
        {
          "internalType": "uint256",
          "name": "",
          "type": "uint256"
        }
      ],
      "stateMutability": "view",
      "type": "function",
      "constant": true
    },
    {
      "inputs": [
        {
          "internalType": "address",
          "name": "_from",
          "type": "address"
        },
        {
          "internalType": "address",
          "name": "_to",
          "type": "address"
        },
        {
          "internalType": "uint256",
          "name": "_tokenId",
          "type": "uint256"
        }
      ],
      "name": "transferFrom",
      "outputs": [],
      "stateMutability": "nonpayable",
      "type": "function"
    },
    {
      "inputs": [
        {
          "internalType": "string",
          "name": "_cryptoBird",
          "type": "string"
        }
      ],
      "name": "mint",
      "outputs": [],
      "stateMutability": "nonpayable",
      "type": "function"
    }
  ],
  "bytecode": "0x60806040523480156200001157600080fd5b506040518060400160405280600a81526020017f43727970746f42697264000000000000000000000000000000000000000000008152506040518060400160405280600581526020017f43424952440000000000000000000000000000000000000000000000000000008152508181620000b17f01ffc9a7a5cef8baa21ed3c5c0d7e23accb804b619e9333b597f47a0d84076e26200022a60201b60201c565b8160019080519060200190620000c992919062000302565b508060029080519060200190620000e292919062000302565b50620001367f13b182f4c0e5b2efbac0efe6cf6d756c8b89f4b79c5707a043ed9ea740574ee97f7feaf19471f34a12a7eaf32d5f3090aa2260ea8624dc8a138e74e0bf0f623076186200022a60201b60201c565b5050620001ad7f22c82707ba960a14c7592ffb6b8cfaa073fed0048a84cc7fa41f6b5bd8e7f2e47f3a6eb71757dfc6e784c1459d26270140c2c147d95ca985c80026fc5301c3eca17f8a7e378434598edc36d108689a030cbc9d7d465de4f74c71bae1028eed6a881b18186200022a60201b60201c565b620002227f8230223f691b981717299fae9549350a0d894555723531f02108b1f522c1a7977f6da5e1284143cdd2d15038a59bde3be031250f00291d64494c12d967b3a4e0c37fc53637662700e6c65104059db8bba34439e0c32483ab7c34e3ccae52c739549518186200022a60201b60201c565b50506200049a565b63ffffffff60e01b817bffffffffffffffffffffffffffffffffffffffffffffffffffffffff1916141562000296576040517f08c379a00000000000000000000000000000000000000000000000000000000081526004016200028d9062000413565b60405180910390fd5b6001600080837bffffffffffffffffffffffffffffffffffffffffffffffffffffffff19167bffffffffffffffffffffffffffffffffffffffffffffffffffffffff1916815260200190815260200160002060006101000a81548160ff02191690831515021790555050565b828054620003109062000464565b90600052602060002090601f01602090048101928262000334576000855562000380565b82601f106200034f57805160ff191683800117855562000380565b8280016001018555821562000380579182015b828111156200037f57825182559160200191906001019062000362565b5b5090506200038f919062000393565b5090565b5b80821115620003ae57600081600090555060010162000394565b5090565b600082825260208201905092915050565b7f496e76616c696420696e74657266616365207265716575657374000000000000600082015250565b6000620003fb601a83620003b2565b91506200040882620003c3565b602082019050919050565b600060208201905081810360008301526200042e81620003ec565b9050919050565b7f4e487b7100000000000000000000000000000000000000000000000000000000600052602260045260246000fd5b600060028204905060018216806200047d57607f821691505b6020821081141562000494576200049362000435565b5b50919050565b611ab280620004aa6000396000f3fe608060405234801561001057600080fd5b50600436106100a95760003560e01c80634f6ccce7116100715780634f6ccce71461016657806358c3d62c146101965780636352211e146101c657806370a08231146101f657806395d89b4114610226578063d85d3d2714610244576100a9565b806301ffc9a7146100ae57806306fdde03146100de57806318160ddd146100fc57806323b872dd1461011a5780632f745c5914610136575b600080fd5b6100c860048036038101906100c39190610fe5565b610260565b6040516100d5919061102d565b60405180910390f35b6100e66102c7565b6040516100f391906110e1565b60405180910390f35b610104610359565b604051610111919061111c565b60405180910390f35b610134600480360381019061012f91906111c1565b610366565b005b610150600480360381019061014b9190611214565b610376565b60405161015d919061111c565b60405180910390f35b610180600480360381019061017b9190611254565b610426565b60405161018d919061111c565b60405180910390f35b6101b060048036038101906101ab9190611254565b610497565b6040516101bd91906110e1565b60405180910390f35b6101e060048036038101906101db9190611254565b610543565b6040516101ed9190611290565b60405180910390f35b610210600480360381019061020b91906112ab565b610622565b60405161021d919061111c565b60405180910390f35b61022e6106e1565b60405161023b91906110e1565b60405180910390f35b61025e6004803603810190610259919061140d565b610773565b005b6000806000837bffffffffffffffffffffffffffffffffffffffffffffffffffffffff19167bffffffffffffffffffffffffffffffffffffffffffffffffffffffff1916815260200190815260200160002060009054906101000a900460ff169050919050565b6060600180546102d690611485565b80601f016020809104026020016040519081016040528092919081815260200182805461030290611485565b801561034f5780601f106103245761010080835404028352916020019161034f565b820191906000526020600020905b81548152906001019060200180831161033257829003601f168201915b5050505050905090565b6000600680549050905090565b610371838383610876565b505050565b600061038183610622565b82106103c2576040517f08c379a00000000000000000000000000000000000000000000000000000000081526004016103b990611503565b60405180910390fd5b600860008473ffffffffffffffffffffffffffffffffffffffff1673ffffffffffffffffffffffffffffffffffffffff168152602001908152602001600020828154811061041357610412611523565b5b9060005260206000200154905092915050565b6000610430610359565b8210610471576040517f08c379a00000000000000000000000000000000000000000000000000000000081526004016104689061159e565b60405180910390fd5b6006828154811061048557610484611523565b5b90600052602060002001549050919050565b600a81815481106104a757600080fd5b9060005260206000200160009150905080546104c290611485565b80601f01602080910402602001604051908101604052809291908181526020018280546104ee90611485565b801561053b5780601f106105105761010080835404028352916020019161053b565b820191906000526020600020905b81548152906001019060200180831161051e57829003601f168201915b505050505081565b60008073ffffffffffffffffffffffffffffffffffffffff166003600084815260200190815260200160002060009054906101000a900473ffffffffffffffffffffffffffffffffffffffff1673ffffffffffffffffffffffffffffffffffffffff1614156105e7576040517f08c379a00000000000000000000000000000000000000000000000000000000081526004016105de90611630565b60405180910390fd5b6003600083815260200190815260200160002060009054906101000a900473ffffffffffffffffffffffffffffffffffffffff169050919050565b60008073ffffffffffffffffffffffffffffffffffffffff168273ffffffffffffffffffffffffffffffffffffffff161415610693576040517f08c379a000000000000000000000000000000000000000000000000000000000815260040161068a90611630565b60405180910390fd5b6106da600460008473ffffffffffffffffffffffffffffffffffffffff1673ffffffffffffffffffffffffffffffffffffffff168152602001908152602001600020610b0c565b9050919050565b6060600280546106f090611485565b80601f016020809104026020016040519081016040528092919081815260200182805461071c90611485565b80156107695780601f1061073e57610100808354040283529160200191610769565b820191906000526020600020905b81548152906001019060200180831161074c57829003601f168201915b5050505050905090565b600b81604051610783919061168c565b908152602001604051809103902060009054906101000a900460ff16156107df576040517f08c379a00000000000000000000000000000000000000000000000000000000081526004016107d6906116ef565b60405180910390fd5b600a8190806001815401808255809150506001900390600052602060002001600090919091909150908051906020019061081a929190610ed6565b5060006001600a8054905061082f919061173e565b905061083b3382610b1a565b6001600b8360405161084d919061168c565b908152602001604051809103902060006101000a81548160ff0219169083151502179055505050565b600073ffffffffffffffffffffffffffffffffffffffff168273ffffffffffffffffffffffffffffffffffffffff1614156108e6576040517f08c379a00000000000000000000000000000000000000000000000000000000081526004016108dd906117e4565b60405180910390fd5b600073ffffffffffffffffffffffffffffffffffffffff168373ffffffffffffffffffffffffffffffffffffffff161415610956576040517f08c379a000000000000000000000000000000000000000000000000000000000815260040161094d90611876565b60405180910390fd5b8273ffffffffffffffffffffffffffffffffffffffff1661097682610543565b73ffffffffffffffffffffffffffffffffffffffff16146109cc576040517f08c379a00000000000000000000000000000000000000000000000000000000081526004016109c390611908565b60405180910390fd5b816003600083815260200190815260200160002060006101000a81548173ffffffffffffffffffffffffffffffffffffffff021916908373ffffffffffffffffffffffffffffffffffffffff160217905550610a65600460008573ffffffffffffffffffffffffffffffffffffffff1673ffffffffffffffffffffffffffffffffffffffff168152602001908152602001600020610b3b565b610aac600460008473ffffffffffffffffffffffffffffffffffffffff1673ffffffffffffffffffffffffffffffffffffffff168152602001908152602001600020610b5e565b808273ffffffffffffffffffffffffffffffffffffffff168473ffffffffffffffffffffffffffffffffffffffff167fddf252ad1be2c89b69c2b068fc378daa952ba7f163c4a11628f55a4df523b3ef60405160405180910390a4505050565b600081600001549050919050565b610b248282610b7d565b610b2e8282610cf9565b610b3781610dbd565b5050565b610b5360018260000154610e0690919063ffffffff16565b816000018190555050565b6001816000016000828254610b739190611928565b9250508190555050565b600073ffffffffffffffffffffffffffffffffffffffff168273ffffffffffffffffffffffffffffffffffffffff161415610bed576040517f08c379a0000000000000000000000000000000000000000000000000000000008152600401610be4906119f0565b60405180910390fd5b610bf681610e64565b15610c0057600080fd5b816003600083815260200190815260200160002060006101000a81548173ffffffffffffffffffffffffffffffffffffffff021916908373ffffffffffffffffffffffffffffffffffffffff160217905550610c99600460008473ffffffffffffffffffffffffffffffffffffffff1673ffffffffffffffffffffffffffffffffffffffff168152602001908152602001600020610b5e565b808273ffffffffffffffffffffffffffffffffffffffff16600073ffffffffffffffffffffffffffffffffffffffff167fddf252ad1be2c89b69c2b068fc378daa952ba7f163c4a11628f55a4df523b3ef60405160405180910390a45050565b600860008373ffffffffffffffffffffffffffffffffffffffff1673ffffffffffffffffffffffffffffffffffffffff168152602001908152602001600020819080600181540180825580915050600190039060005260206000200160009091909190915055600860008373ffffffffffffffffffffffffffffffffffffffff1673ffffffffffffffffffffffffffffffffffffffff1681526020019081526020016000208054905060096000838152602001908152602001600020819055505050565b6006805490506007600083815260200190815260200160002081905550600681908060018154018082558091505060019003906000526020600020016000909190919091505550565b6000808284610e15919061173e565b905083831115610e5a576040517f08c379a0000000000000000000000000000000000000000000000000000000008152600401610e5190611a5c565b60405180910390fd5b8091505092915050565b6000806003600084815260200190815260200160002060009054906101000a900473ffffffffffffffffffffffffffffffffffffffff169050600073ffffffffffffffffffffffffffffffffffffffff168173ffffffffffffffffffffffffffffffffffffffff161415915050919050565b828054610ee290611485565b90600052602060002090601f016020900481019282610f045760008555610f4b565b82601f10610f1d57805160ff1916838001178555610f4b565b82800160010185558215610f4b579182015b82811115610f4a578251825591602001919060010190610f2f565b5b509050610f589190610f5c565b5090565b5b80821115610f75576000816000905550600101610f5d565b5090565b6000604051905090565b600080fd5b600080fd5b60007fffffffff0000000000000000000000000000000000000000000000000000000082169050919050565b610fc281610f8d565b8114610fcd57600080fd5b50565b600081359050610fdf81610fb9565b92915050565b600060208284031215610ffb57610ffa610f83565b5b600061100984828501610fd0565b91505092915050565b60008115159050919050565b61102781611012565b82525050565b6000602082019050611042600083018461101e565b92915050565b600081519050919050565b600082825260208201905092915050565b60005b83811015611082578082015181840152602081019050611067565b83811115611091576000848401525b50505050565b6000601f19601f8301169050919050565b60006110b382611048565b6110bd8185611053565b93506110cd818560208601611064565b6110d681611097565b840191505092915050565b600060208201905081810360008301526110fb81846110a8565b905092915050565b6000819050919050565b61111681611103565b82525050565b6000602082019050611131600083018461110d565b92915050565b600073ffffffffffffffffffffffffffffffffffffffff82169050919050565b600061116282611137565b9050919050565b61117281611157565b811461117d57600080fd5b50565b60008135905061118f81611169565b92915050565b61119e81611103565b81146111a957600080fd5b50565b6000813590506111bb81611195565b92915050565b6000806000606084860312156111da576111d9610f83565b5b60006111e886828701611180565b93505060206111f986828701611180565b925050604061120a868287016111ac565b9150509250925092565b6000806040838503121561122b5761122a610f83565b5b600061123985828601611180565b925050602061124a858286016111ac565b9150509250929050565b60006020828403121561126a57611269610f83565b5b6000611278848285016111ac565b91505092915050565b61128a81611157565b82525050565b60006020820190506112a56000830184611281565b92915050565b6000602082840312156112c1576112c0610f83565b5b60006112cf84828501611180565b91505092915050565b600080fd5b600080fd5b7f4e487b7100000000000000000000000000000000000000000000000000000000600052604160045260246000fd5b61131a82611097565b810181811067ffffffffffffffff82111715611339576113386112e2565b5b80604052505050565b600061134c610f79565b90506113588282611311565b919050565b600067ffffffffffffffff821115611378576113776112e2565b5b61138182611097565b9050602081019050919050565b82818337600083830152505050565b60006113b06113ab8461135d565b611342565b9050828152602081018484840111156113cc576113cb6112dd565b5b6113d784828561138e565b509392505050565b600082601f8301126113f4576113f36112d8565b5b813561140484826020860161139d565b91505092915050565b60006020828403121561142357611422610f83565b5b600082013567ffffffffffffffff81111561144157611440610f88565b5b61144d848285016113df565b91505092915050565b7f4e487b7100000000000000000000000000000000000000000000000000000000600052602260045260246000fd5b6000600282049050600182168061149d57607f821691505b602082108114156114b1576114b0611456565b5b50919050565b7f4f776e657220696e646578206973206f7574206f6620626f756e647321000000600082015250565b60006114ed601d83611053565b91506114f8826114b7565b602082019050919050565b6000602082019050818103600083015261151c816114e0565b9050919050565b7f4e487b7100000000000000000000000000000000000000000000000000000000600052603260045260246000fd5b7f476c6f62616c20696e646578206973206f7574206f6620626f756e6473210000600082015250565b6000611588601e83611053565b915061159382611552565b602082019050919050565b600060208201905081810360008301526115b78161157b565b9050919050565b7f4f776e657220717565727920666f72206e6f6e2d6578697374656e7420746f6b60008201527f656e000000000000000000000000000000000000000000000000000000000000602082015250565b600061161a602283611053565b9150611625826115be565b604082019050919050565b600060208201905081810360008301526116498161160d565b9050919050565b600081905092915050565b600061166682611048565b6116708185611650565b9350611680818560208601611064565b80840191505092915050565b6000611698828461165b565b915081905092915050565b7f43727970746f4269726420616c72656164792065786973747300000000000000600082015250565b60006116d9601983611053565b91506116e4826116a3565b602082019050919050565b60006020820190508181036000830152611708816116cc565b9050919050565b7f4e487b7100000000000000000000000000000000000000000000000000000000600052601160045260246000fd5b600061174982611103565b915061175483611103565b9250828210156117675761176661170f565b5b828203905092915050565b7f4572726f72202d207472616e7366657220746f2061207a65726f20616464726560008201527f7373000000000000000000000000000000000000000000000000000000000000602082015250565b60006117ce602283611053565b91506117d982611772565b604082019050919050565b600060208201905081810360008301526117fd816117c1565b9050919050565b7f4572726f72202d207472616e736665722066726f6d2061207a65726f2061646460008201527f7265737300000000000000000000000000000000000000000000000000000000602082015250565b6000611860602483611053565b915061186b82611804565b604082019050919050565b6000602082019050818103600083015261188f81611853565b9050919050565b7f547279696e6720746f207472616e73666572206120746f6b656e20746865207360008201527f656e64657220646f6573206e6f74206f776e0000000000000000000000000000602082015250565b60006118f2603283611053565b91506118fd82611896565b604082019050919050565b60006020820190508181036000830152611921816118e5565b9050919050565b600061193382611103565b915061193e83611103565b9250827fffffffffffffffffffffffffffffffffffffffffffffffffffffffffffffffff038211156119735761197261170f565b5b828201905092915050565b7f455243373231206d696e74696e6720746f20746865207a65726f20616464726560008201527f7373000000000000000000000000000000000000000000000000000000000000602082015250565b60006119da602283611053565b91506119e58261197e565b604082019050919050565b60006020820190508181036000830152611a09816119cd565b9050919050565b7f536166654d6174683a20737562737472616374696f6e206f766572666c6f7700600082015250565b6000611a46601f83611053565b9150611a5182611a10565b602082019050919050565b60006020820190508181036000830152611a7581611a39565b905091905056fea2646970667358221220ac5814043342afb348d2e7b7f0cf27a9c80855992397f154066921293bfec23964736f6c634300080b0033",
  "immutableReferences": {},
  "source": "// SPDX-License-Identifier: MIT\npragma solidity ^0.8.11;\n\nimport \"./ERC721Connector.sol\";\n\ncontract CryptoBirdz is ERC721Connector {\n    // array to store our nfts\n    string[] public cryptoBirdz;\n    mapping(string => bool) _cryptoBirdzExists;\n\n    function mint(string memory _cryptoBird) public {\n        require(!_cryptoBirdzExists[_cryptoBird], \"CryptoBird already exists\");\n        cryptoBirdz.push(_cryptoBird);\n        uint256 id = cryptoBirdz.length - 1;\n\n        _mint(msg.sender, id);\n\n        _cryptoBirdzExists[_cryptoBird] = true;\n    }\n\n    constructor() ERC721Connector(\"CryptoBird\", \"CBIRD\") {}\n}\n",
  "sourcePath": "/Users/navinalang/nft-marketplace/src/contracts/CryptoBirdz.sol",
  "compiler": {
    "name": "solc",
    "version": "0.8.11+commit.d7f03943.Emscripten.clang"
  },
  "schemaVersion": "3.4.4",
  "updatedAt": "2022-02-02T20:37:10.847Z",
  "networkType": "ethereum",
  "devdoc": {
    "kind": "dev",
    "methods": {
      "ownerOf(uint256)": {
        "details": "NFTs assigned to zero address are considered invalid, and queries  about them do throw.",
        "params": {
          "_tokenId": "The identifier for an NFT"
        },
        "returns": {
          "_0": "The address of the owner of the NFT"
        }
      }
    },
    "version": 1
  },
  "userdoc": {
    "kind": "user",
    "methods": {
      "ownerOf(uint256)": {
        "notice": "Find the owner of an NFT"
      }
    },
    "version": 1
  }
}