{
  "contractName": "CryptoBirdz",
  "abi": [
    {
      "inputs": [],
      "stateMutability": "nonpayable",
      "type": "constructor"
    },
    {
      "anonymous": false,
      "inputs": [
        {
          "indexed": true,
          "internalType": "address",
          "name": "from",
          "type": "address"
        },
        {
          "indexed": true,
          "internalType": "address",
          "name": "to",
          "type": "address"
        },
        {
          "indexed": true,
          "internalType": "uint256",
          "name": "tokenId",
          "type": "uint256"
        }
      ],
      "name": "Transfer",
      "type": "event"
    },
    {
      "inputs": [
        {
          "internalType": "address",
          "name": "_owner",
          "type": "address"
        }
      ],
      "name": "balanceOf",
      "outputs": [
        {
          "internalType": "uint256",
          "name": "",
          "type": "uint256"
        }
      ],
      "stateMutability": "view",
      "type": "function",
      "constant": true
    },
    {
      "inputs": [
        {
          "internalType": "uint256",
          "name": "",
          "type": "uint256"
        }
      ],
      "name": "cryptoBirdz",
      "outputs": [
        {
          "internalType": "string",
          "name": "",
          "type": "string"
        }
      ],
      "stateMutability": "view",
      "type": "function",
      "constant": true
    },
    {
      "inputs": [],
      "name": "getName",
      "outputs": [
        {
          "internalType": "string",
          "name": "",
          "type": "string"
        }
      ],
      "stateMutability": "view",
      "type": "function",
      "constant": true
    },
    {
      "inputs": [],
      "name": "getSymbol",
      "outputs": [
        {
          "internalType": "string",
          "name": "",
          "type": "string"
        }
      ],
      "stateMutability": "view",
      "type": "function",
      "constant": true
    },
    {
      "inputs": [
        {
          "internalType": "uint256",
          "name": "_tokenId",
          "type": "uint256"
        }
      ],
      "name": "ownerOf",
      "outputs": [
        {
          "internalType": "address",
          "name": "",
          "type": "address"
        }
      ],
      "stateMutability": "view",
      "type": "function",
      "constant": true
    },
    {
      "inputs": [
        {
          "internalType": "uint256",
          "name": "index",
          "type": "uint256"
        }
      ],
      "name": "tokenByIndex",
      "outputs": [
        {
          "internalType": "uint256",
          "name": "",
          "type": "uint256"
        }
      ],
      "stateMutability": "view",
      "type": "function",
      "constant": true
    },
    {
      "inputs": [
        {
          "internalType": "address",
          "name": "owner",
          "type": "address"
        },
        {
          "internalType": "uint256",
          "name": "index",
          "type": "uint256"
        }
      ],
      "name": "tokenOfOwnerByIndex",
      "outputs": [
        {
          "internalType": "uint256",
          "name": "",
          "type": "uint256"
        }
      ],
      "stateMutability": "view",
      "type": "function",
      "constant": true
    },
    {
      "inputs": [],
      "name": "totalSupply",
      "outputs": [
        {
          "internalType": "uint256",
          "name": "",
          "type": "uint256"
        }
      ],
      "stateMutability": "view",
      "type": "function",
      "constant": true
    },
    {
      "inputs": [
        {
          "internalType": "address",
          "name": "_from",
          "type": "address"
        },
        {
          "internalType": "address",
          "name": "_to",
          "type": "address"
        },
        {
          "internalType": "uint256",
          "name": "_tokenId",
          "type": "uint256"
        }
      ],
      "name": "transferFrom",
      "outputs": [],
      "stateMutability": "nonpayable",
      "type": "function"
    },
    {
      "inputs": [
        {
          "internalType": "string",
          "name": "_cryptoBird",
          "type": "string"
        }
      ],
      "name": "mint",
      "outputs": [],
      "stateMutability": "nonpayable",
      "type": "function"
    }
  ],
  "bytecode": "0x60806040523480156200001157600080fd5b506040518060400160405280600a81526020017f43727970746f42697264000000000000000000000000000000000000000000008152506040518060400160405280600581526020017f43424952440000000000000000000000000000000000000000000000000000008152508181816000908051906020019062000098929190620000bc565b508060019080519060200190620000b1929190620000bc565b5050505050620001d1565b828054620000ca906200019b565b90600052602060002090601f016020900481019282620000ee57600085556200013a565b82601f106200010957805160ff19168380011785556200013a565b828001600101855582156200013a579182015b82811115620001395782518255916020019190600101906200011c565b5b5090506200014991906200014d565b5090565b5b80821115620001685760008160009055506001016200014e565b5090565b7f4e487b7100000000000000000000000000000000000000000000000000000000600052602260045260246000fd5b60006002820490506001821680620001b457607f821691505b60208210811415620001cb57620001ca6200016c565b5b50919050565b61187b80620001e16000396000f3fe608060405234801561001057600080fd5b506004361061009e5760003560e01c80634f6ccce7116100665780634f6ccce71461014957806358c3d62c146101795780636352211e146101a957806370a08231146101d9578063d85d3d27146102095761009e565b806315070401146100a357806317d7de7c146100c157806318160ddd146100df57806323b872dd146100fd5780632f745c5914610119575b600080fd5b6100ab610225565b6040516100b89190610ee5565b60405180910390f35b6100c96102b7565b6040516100d69190610ee5565b60405180910390f35b6100e7610349565b6040516100f49190610f20565b60405180910390f35b61011760048036038101906101129190610fd9565b610356565b005b610133600480360381019061012e919061102c565b610366565b6040516101409190610f20565b60405180910390f35b610163600480360381019061015e919061106c565b610416565b6040516101709190610f20565b60405180910390f35b610193600480360381019061018e919061106c565b610487565b6040516101a09190610ee5565b60405180910390f35b6101c360048036038101906101be919061106c565b610533565b6040516101d091906110a8565b60405180910390f35b6101f360048036038101906101ee91906110c3565b610612565b6040516102009190610f20565b60405180910390f35b610223600480360381019061021e9190611225565b6106ca565b005b6060600180546102349061129d565b80601f01602080910402602001604051908101604052809291908181526020018280546102609061129d565b80156102ad5780601f10610282576101008083540402835291602001916102ad565b820191906000526020600020905b81548152906001019060200180831161029057829003601f168201915b5050505050905090565b6060600080546102c69061129d565b80601f01602080910402602001604051908101604052809291908181526020018280546102f29061129d565b801561033f5780601f106103145761010080835404028352916020019161033f565b820191906000526020600020905b81548152906001019060200180831161032257829003601f168201915b5050505050905090565b6000600580549050905090565b6103618383836107cd565b505050565b600061037183610612565b82106103b2576040517f08c379a00000000000000000000000000000000000000000000000000000000081526004016103a99061131b565b60405180910390fd5b600760008473ffffffffffffffffffffffffffffffffffffffff1673ffffffffffffffffffffffffffffffffffffffff16815260200190815260200160002082815481106104035761040261133b565b5b9060005260206000200154905092915050565b6000610420610349565b8210610461576040517f08c379a0000000000000000000000000000000000000000000000000000000008152600401610458906113b6565b60405180910390fd5b600582815481106104755761047461133b565b5b90600052602060002001549050919050565b6009818154811061049757600080fd5b9060005260206000200160009150905080546104b29061129d565b80601f01602080910402602001604051908101604052809291908181526020018280546104de9061129d565b801561052b5780601f106105005761010080835404028352916020019161052b565b820191906000526020600020905b81548152906001019060200180831161050e57829003601f168201915b505050505081565b60008073ffffffffffffffffffffffffffffffffffffffff166002600084815260200190815260200160002060009054906101000a900473ffffffffffffffffffffffffffffffffffffffff1673ffffffffffffffffffffffffffffffffffffffff1614156105d7576040517f08c379a00000000000000000000000000000000000000000000000000000000081526004016105ce90611448565b60405180910390fd5b6002600083815260200190815260200160002060009054906101000a900473ffffffffffffffffffffffffffffffffffffffff169050919050565b60008073ffffffffffffffffffffffffffffffffffffffff168273ffffffffffffffffffffffffffffffffffffffff161415610683576040517f08c379a000000000000000000000000000000000000000000000000000000000815260040161067a90611448565b60405180910390fd5b600360008373ffffffffffffffffffffffffffffffffffffffff1673ffffffffffffffffffffffffffffffffffffffff168152602001908152602001600020549050919050565b600a816040516106da91906114a4565b908152602001604051809103902060009054906101000a900460ff1615610736576040517f08c379a000000000000000000000000000000000000000000000000000000000815260040161072d90611507565b60405180910390fd5b600981908060018154018082558091505060019003906000526020600020016000909190919091509080519060200190610771929190610da9565b50600060016009805490506107869190611556565b90506107923382610a7f565b6001600a836040516107a491906114a4565b908152602001604051809103902060006101000a81548160ff0219169083151502179055505050565b600073ffffffffffffffffffffffffffffffffffffffff168273ffffffffffffffffffffffffffffffffffffffff16141561083d576040517f08c379a0000000000000000000000000000000000000000000000000000000008152600401610834906115fc565b60405180910390fd5b600073ffffffffffffffffffffffffffffffffffffffff168373ffffffffffffffffffffffffffffffffffffffff1614156108ad576040517f08c379a00000000000000000000000000000000000000000000000000000000081526004016108a49061168e565b60405180910390fd5b8273ffffffffffffffffffffffffffffffffffffffff166108cd82610533565b73ffffffffffffffffffffffffffffffffffffffff1614610923576040517f08c379a000000000000000000000000000000000000000000000000000000000815260040161091a90611720565b60405180910390fd5b816002600083815260200190815260200160002060006101000a81548173ffffffffffffffffffffffffffffffffffffffff021916908373ffffffffffffffffffffffffffffffffffffffff160217905550600360008473ffffffffffffffffffffffffffffffffffffffff1673ffffffffffffffffffffffffffffffffffffffff16815260200190815260200160002060008154809291906109c590611740565b9190505550600360008373ffffffffffffffffffffffffffffffffffffffff1673ffffffffffffffffffffffffffffffffffffffff1681526020019081526020016000206000815480929190610a1a9061176a565b9190505550808273ffffffffffffffffffffffffffffffffffffffff168473ffffffffffffffffffffffffffffffffffffffff167fddf252ad1be2c89b69c2b068fc378daa952ba7f163c4a11628f55a4df523b3ef60405160405180910390a4505050565b610a898282610aa0565b610a938282610c2a565b610a9c81610cee565b5050565b600073ffffffffffffffffffffffffffffffffffffffff168273ffffffffffffffffffffffffffffffffffffffff161415610b10576040517f08c379a0000000000000000000000000000000000000000000000000000000008152600401610b0790611825565b60405180910390fd5b610b1981610d37565b15610b2357600080fd5b816002600083815260200190815260200160002060006101000a81548173ffffffffffffffffffffffffffffffffffffffff021916908373ffffffffffffffffffffffffffffffffffffffff160217905550600360008373ffffffffffffffffffffffffffffffffffffffff1673ffffffffffffffffffffffffffffffffffffffff1681526020019081526020016000206000815480929190610bc59061176a565b9190505550808273ffffffffffffffffffffffffffffffffffffffff16600073ffffffffffffffffffffffffffffffffffffffff167fddf252ad1be2c89b69c2b068fc378daa952ba7f163c4a11628f55a4df523b3ef60405160405180910390a45050565b600760008373ffffffffffffffffffffffffffffffffffffffff1673ffffffffffffffffffffffffffffffffffffffff168152602001908152602001600020819080600181540180825580915050600190039060005260206000200160009091909190915055600760008373ffffffffffffffffffffffffffffffffffffffff1673ffffffffffffffffffffffffffffffffffffffff1681526020019081526020016000208054905060086000838152602001908152602001600020819055505050565b6005805490506006600083815260200190815260200160002081905550600581908060018154018082558091505060019003906000526020600020016000909190919091505550565b6000806002600084815260200190815260200160002060009054906101000a900473ffffffffffffffffffffffffffffffffffffffff169050600073ffffffffffffffffffffffffffffffffffffffff168173ffffffffffffffffffffffffffffffffffffffff161415915050919050565b828054610db59061129d565b90600052602060002090601f016020900481019282610dd75760008555610e1e565b82601f10610df057805160ff1916838001178555610e1e565b82800160010185558215610e1e579182015b82811115610e1d578251825591602001919060010190610e02565b5b509050610e2b9190610e2f565b5090565b5b80821115610e48576000816000905550600101610e30565b5090565b600081519050919050565b600082825260208201905092915050565b60005b83811015610e86578082015181840152602081019050610e6b565b83811115610e95576000848401525b50505050565b6000601f19601f8301169050919050565b6000610eb782610e4c565b610ec18185610e57565b9350610ed1818560208601610e68565b610eda81610e9b565b840191505092915050565b60006020820190508181036000830152610eff8184610eac565b905092915050565b6000819050919050565b610f1a81610f07565b82525050565b6000602082019050610f356000830184610f11565b92915050565b6000604051905090565b600080fd5b600080fd5b600073ffffffffffffffffffffffffffffffffffffffff82169050919050565b6000610f7a82610f4f565b9050919050565b610f8a81610f6f565b8114610f9557600080fd5b50565b600081359050610fa781610f81565b92915050565b610fb681610f07565b8114610fc157600080fd5b50565b600081359050610fd381610fad565b92915050565b600080600060608486031215610ff257610ff1610f45565b5b600061100086828701610f98565b935050602061101186828701610f98565b925050604061102286828701610fc4565b9150509250925092565b6000806040838503121561104357611042610f45565b5b600061105185828601610f98565b925050602061106285828601610fc4565b9150509250929050565b60006020828403121561108257611081610f45565b5b600061109084828501610fc4565b91505092915050565b6110a281610f6f565b82525050565b60006020820190506110bd6000830184611099565b92915050565b6000602082840312156110d9576110d8610f45565b5b60006110e784828501610f98565b91505092915050565b600080fd5b600080fd5b7f4e487b7100000000000000000000000000000000000000000000000000000000600052604160045260246000fd5b61113282610e9b565b810181811067ffffffffffffffff82111715611151576111506110fa565b5b80604052505050565b6000611164610f3b565b90506111708282611129565b919050565b600067ffffffffffffffff8211156111905761118f6110fa565b5b61119982610e9b565b9050602081019050919050565b82818337600083830152505050565b60006111c86111c384611175565b61115a565b9050828152602081018484840111156111e4576111e36110f5565b5b6111ef8482856111a6565b509392505050565b600082601f83011261120c5761120b6110f0565b5b813561121c8482602086016111b5565b91505092915050565b60006020828403121561123b5761123a610f45565b5b600082013567ffffffffffffffff81111561125957611258610f4a565b5b611265848285016111f7565b91505092915050565b7f4e487b7100000000000000000000000000000000000000000000000000000000600052602260045260246000fd5b600060028204905060018216806112b557607f821691505b602082108114156112c9576112c861126e565b5b50919050565b7f4f776e657220696e646578206973206f7574206f6620626f756e647321000000600082015250565b6000611305601d83610e57565b9150611310826112cf565b602082019050919050565b60006020820190508181036000830152611334816112f8565b9050919050565b7f4e487b7100000000000000000000000000000000000000000000000000000000600052603260045260246000fd5b7f476c6f62616c20696e646578206973206f7574206f6620626f756e6473210000600082015250565b60006113a0601e83610e57565b91506113ab8261136a565b602082019050919050565b600060208201905081810360008301526113cf81611393565b9050919050565b7f4f776e657220717565727920666f72206e6f6e2d6578697374656e7420746f6b60008201527f656e000000000000000000000000000000000000000000000000000000000000602082015250565b6000611432602283610e57565b915061143d826113d6565b604082019050919050565b6000602082019050818103600083015261146181611425565b9050919050565b600081905092915050565b600061147e82610e4c565b6114888185611468565b9350611498818560208601610e68565b80840191505092915050565b60006114b08284611473565b915081905092915050565b7f43727970746f4269726420616c72656164792065786973747300000000000000600082015250565b60006114f1601983610e57565b91506114fc826114bb565b602082019050919050565b60006020820190508181036000830152611520816114e4565b9050919050565b7f4e487b7100000000000000000000000000000000000000000000000000000000600052601160045260246000fd5b600061156182610f07565b915061156c83610f07565b92508282101561157f5761157e611527565b5b828203905092915050565b7f4572726f72202d207472616e7366657220746f2061207a65726f20616464726560008201527f7373000000000000000000000000000000000000000000000000000000000000602082015250565b60006115e6602283610e57565b91506115f18261158a565b604082019050919050565b60006020820190508181036000830152611615816115d9565b9050919050565b7f4572726f72202d207472616e736665722066726f6d2061207a65726f2061646460008201527f7265737300000000000000000000000000000000000000000000000000000000602082015250565b6000611678602483610e57565b91506116838261161c565b604082019050919050565b600060208201905081810360008301526116a78161166b565b9050919050565b7f547279696e6720746f207472616e73666572206120746f6b656e20746865207360008201527f656e64657220646f6573206e6f74206f776e0000000000000000000000000000602082015250565b600061170a603283610e57565b9150611715826116ae565b604082019050919050565b60006020820190508181036000830152611739816116fd565b9050919050565b600061174b82610f07565b9150600082141561175f5761175e611527565b5b600182039050919050565b600061177582610f07565b91507fffffffffffffffffffffffffffffffffffffffffffffffffffffffffffffffff8214156117a8576117a7611527565b5b600182019050919050565b7f455243373231206d696e74696e6720746f20746865207a65726f20616464726560008201527f7373000000000000000000000000000000000000000000000000000000000000602082015250565b600061180f602283610e57565b915061181a826117b3565b604082019050919050565b6000602082019050818103600083015261183e81611802565b905091905056fea26469706673582212204c872ea2b1c9ae900abe1925537e1d35a918de0cdcdad99c544b1ebcfdce9fb564736f6c634300080b0033",
  "immutableReferences": {},
  "source": "// SPDX-License-Identifier: MIT\npragma solidity ^0.8.11;\n\nimport \"./ERC721Connector.sol\";\n\ncontract CryptoBirdz is ERC721Connector {\n    // array to store our nfts\n    string[] public cryptoBirdz;\n    mapping(string => bool) _cryptoBirdzExists;\n\n    function mint(string memory _cryptoBird) public {\n        require(!_cryptoBirdzExists[_cryptoBird], \"CryptoBird already exists\");\n        cryptoBirdz.push(_cryptoBird);\n        uint256 id = cryptoBirdz.length - 1;\n\n        _mint(msg.sender, id);\n\n        _cryptoBirdzExists[_cryptoBird] = true;\n    }\n\n    constructor() ERC721Connector(\"CryptoBird\", \"CBIRD\") {}\n}\n",
  "sourcePath": "/Users/navinalang/nft-marketplace-starter-kit/src/contracts/CryptoBirdz.sol",
  "compiler": {
    "name": "solc",
    "version": "0.8.11+commit.d7f03943.Emscripten.clang"
  },
  "schemaVersion": "3.4.4",
  "updatedAt": "2022-01-25T23:38:32.450Z",
  "networkType": "ethereum",
  "devdoc": {
    "kind": "dev",
    "methods": {
      "balanceOf(address)": {
        "details": "NFTs assigned to the zero address are considered invalid, and this  function throws for queries about the zero address.",
        "params": {
          "_owner": "An address for whom to query the balance"
        },
        "returns": {
          "_0": "The number of NFTs owned by `_owner`, possibly zero"
        }
      },
      "ownerOf(uint256)": {
        "details": "NFTs assigned to zero address are considered invalid, and queries  about them do throw.",
        "params": {
          "_tokenId": "The identifier for an NFT"
        },
        "returns": {
          "_0": "The address of the owner of the NFT"
        }
      },
      "totalSupply()": {
        "returns": {
          "_0": "A count of valid NFTs tracked by this contract, where each one of  them has an assigned and queryable owner not equal to the zero address"
        }
      }
    },
    "version": 1
  },
  "userdoc": {
    "kind": "user",
    "methods": {
      "balanceOf(address)": {
        "notice": "Count all NFTs assigned to an owner"
      },
      "ownerOf(uint256)": {
        "notice": "Find the owner of an NFT"
      },
      "totalSupply()": {
        "notice": "Count NFTs tracked by this contract"
      }
    },
    "version": 1
  }
}