{
  "contractName": "ERC721Enumerable",
  "abi": [
    {
      "anonymous": false,
      "inputs": [
        {
          "indexed": true,
          "internalType": "address",
          "name": "from",
          "type": "address"
        },
        {
          "indexed": true,
          "internalType": "address",
          "name": "to",
          "type": "address"
        },
        {
          "indexed": true,
          "internalType": "uint256",
          "name": "tokenId",
          "type": "uint256"
        }
      ],
      "name": "Transfer",
      "type": "event"
    },
    {
      "inputs": [
        {
          "internalType": "address",
          "name": "_owner",
          "type": "address"
        }
      ],
      "name": "balanceOf",
      "outputs": [
        {
          "internalType": "uint256",
          "name": "",
          "type": "uint256"
        }
      ],
      "stateMutability": "view",
      "type": "function"
    },
    {
      "inputs": [
        {
          "internalType": "uint256",
          "name": "_tokenId",
          "type": "uint256"
        }
      ],
      "name": "ownerOf",
      "outputs": [
        {
          "internalType": "address",
          "name": "",
          "type": "address"
        }
      ],
      "stateMutability": "view",
      "type": "function"
    },
    {
      "inputs": [
        {
          "internalType": "address",
          "name": "_from",
          "type": "address"
        },
        {
          "internalType": "address",
          "name": "_to",
          "type": "address"
        },
        {
          "internalType": "uint256",
          "name": "_tokenId",
          "type": "uint256"
        }
      ],
      "name": "transferFrom",
      "outputs": [],
      "stateMutability": "nonpayable",
      "type": "function"
    },
    {
      "inputs": [],
      "name": "totalSupply",
      "outputs": [
        {
          "internalType": "uint256",
          "name": "",
          "type": "uint256"
        }
      ],
      "stateMutability": "view",
      "type": "function"
    },
    {
      "inputs": [
        {
          "internalType": "uint256",
          "name": "index",
          "type": "uint256"
        }
      ],
      "name": "tokenByIndex",
      "outputs": [
        {
          "internalType": "uint256",
          "name": "",
          "type": "uint256"
        }
      ],
      "stateMutability": "view",
      "type": "function"
    },
    {
      "inputs": [
        {
          "internalType": "address",
          "name": "owner",
          "type": "address"
        },
        {
          "internalType": "uint256",
          "name": "index",
          "type": "uint256"
        }
      ],
      "name": "tokenOfOwnerByIndex",
      "outputs": [
        {
          "internalType": "uint256",
          "name": "",
          "type": "uint256"
        }
      ],
      "stateMutability": "view",
      "type": "function"
    }
  ],
  "bytecode": "0x608060405234801561001057600080fd5b50610cf7806100206000396000f3fe608060405234801561001057600080fd5b50600436106100625760003560e01c806318160ddd1461006757806323b872dd146100855780632f745c59146100a15780634f6ccce7146100d15780636352211e1461010157806370a0823114610131575b600080fd5b61006f610161565b60405161007c91906106fe565b60405180910390f35b61009f600480360381019061009a91906107a8565b61016e565b005b6100bb60048036038101906100b691906107fb565b61017e565b6040516100c891906106fe565b60405180910390f35b6100eb60048036038101906100e6919061083b565b61022e565b6040516100f891906106fe565b60405180910390f35b61011b6004803603810190610116919061083b565b61029f565b6040516101289190610877565b60405180910390f35b61014b60048036038101906101469190610892565b61037c565b60405161015891906106fe565b60405180910390f35b6000600380549050905090565b610179838383610434565b505050565b60006101898361037c565b82106101ca576040517f08c379a00000000000000000000000000000000000000000000000000000000081526004016101c19061091c565b60405180910390fd5b600560008473ffffffffffffffffffffffffffffffffffffffff1673ffffffffffffffffffffffffffffffffffffffff168152602001908152602001600020828154811061021b5761021a61093c565b5b9060005260206000200154905092915050565b6000610238610161565b8210610279576040517f08c379a0000000000000000000000000000000000000000000000000000000008152600401610270906109b7565b60405180910390fd5b6003828154811061028d5761028c61093c565b5b90600052602060002001549050919050565b60008073ffffffffffffffffffffffffffffffffffffffff1660008084815260200190815260200160002060009054906101000a900473ffffffffffffffffffffffffffffffffffffffff1673ffffffffffffffffffffffffffffffffffffffff161415610342576040517f08c379a000000000000000000000000000000000000000000000000000000000815260040161033990610a49565b60405180910390fd5b60008083815260200190815260200160002060009054906101000a900473ffffffffffffffffffffffffffffffffffffffff169050919050565b60008073ffffffffffffffffffffffffffffffffffffffff168273ffffffffffffffffffffffffffffffffffffffff1614156103ed576040517f08c379a00000000000000000000000000000000000000000000000000000000081526004016103e490610a49565b60405180910390fd5b600160008373ffffffffffffffffffffffffffffffffffffffff1673ffffffffffffffffffffffffffffffffffffffff168152602001908152602001600020549050919050565b600073ffffffffffffffffffffffffffffffffffffffff168273ffffffffffffffffffffffffffffffffffffffff1614156104a4576040517f08c379a000000000000000000000000000000000000000000000000000000000815260040161049b90610adb565b60405180910390fd5b600073ffffffffffffffffffffffffffffffffffffffff168373ffffffffffffffffffffffffffffffffffffffff161415610514576040517f08c379a000000000000000000000000000000000000000000000000000000000815260040161050b90610b6d565b60405180910390fd5b8273ffffffffffffffffffffffffffffffffffffffff166105348261029f565b73ffffffffffffffffffffffffffffffffffffffff161461058a576040517f08c379a000000000000000000000000000000000000000000000000000000000815260040161058190610bff565b60405180910390fd5b8160008083815260200190815260200160002060006101000a81548173ffffffffffffffffffffffffffffffffffffffff021916908373ffffffffffffffffffffffffffffffffffffffff160217905550600160008473ffffffffffffffffffffffffffffffffffffffff1673ffffffffffffffffffffffffffffffffffffffff168152602001908152602001600020600081548092919061062b90610c4e565b9190505550600160008373ffffffffffffffffffffffffffffffffffffffff1673ffffffffffffffffffffffffffffffffffffffff168152602001908152602001600020600081548092919061068090610c78565b9190505550808273ffffffffffffffffffffffffffffffffffffffff168473ffffffffffffffffffffffffffffffffffffffff167fddf252ad1be2c89b69c2b068fc378daa952ba7f163c4a11628f55a4df523b3ef60405160405180910390a4505050565b6000819050919050565b6106f8816106e5565b82525050565b600060208201905061071360008301846106ef565b92915050565b600080fd5b600073ffffffffffffffffffffffffffffffffffffffff82169050919050565b60006107498261071e565b9050919050565b6107598161073e565b811461076457600080fd5b50565b60008135905061077681610750565b92915050565b610785816106e5565b811461079057600080fd5b50565b6000813590506107a28161077c565b92915050565b6000806000606084860312156107c1576107c0610719565b5b60006107cf86828701610767565b93505060206107e086828701610767565b92505060406107f186828701610793565b9150509250925092565b6000806040838503121561081257610811610719565b5b600061082085828601610767565b925050602061083185828601610793565b9150509250929050565b60006020828403121561085157610850610719565b5b600061085f84828501610793565b91505092915050565b6108718161073e565b82525050565b600060208201905061088c6000830184610868565b92915050565b6000602082840312156108a8576108a7610719565b5b60006108b684828501610767565b91505092915050565b600082825260208201905092915050565b7f4f776e657220696e646578206973206f7574206f6620626f756e647321000000600082015250565b6000610906601d836108bf565b9150610911826108d0565b602082019050919050565b60006020820190508181036000830152610935816108f9565b9050919050565b7f4e487b7100000000000000000000000000000000000000000000000000000000600052603260045260246000fd5b7f476c6f62616c20696e646578206973206f7574206f6620626f756e6473210000600082015250565b60006109a1601e836108bf565b91506109ac8261096b565b602082019050919050565b600060208201905081810360008301526109d081610994565b9050919050565b7f4f776e657220717565727920666f72206e6f6e2d6578697374656e7420746f6b60008201527f656e000000000000000000000000000000000000000000000000000000000000602082015250565b6000610a336022836108bf565b9150610a3e826109d7565b604082019050919050565b60006020820190508181036000830152610a6281610a26565b9050919050565b7f4572726f72202d207472616e7366657220746f2061207a65726f20616464726560008201527f7373000000000000000000000000000000000000000000000000000000000000602082015250565b6000610ac56022836108bf565b9150610ad082610a69565b604082019050919050565b60006020820190508181036000830152610af481610ab8565b9050919050565b7f4572726f72202d207472616e736665722066726f6d2061207a65726f2061646460008201527f7265737300000000000000000000000000000000000000000000000000000000602082015250565b6000610b576024836108bf565b9150610b6282610afb565b604082019050919050565b60006020820190508181036000830152610b8681610b4a565b9050919050565b7f547279696e6720746f207472616e73666572206120746f6b656e20746865207360008201527f656e64657220646f6573206e6f74206f776e0000000000000000000000000000602082015250565b6000610be96032836108bf565b9150610bf482610b8d565b604082019050919050565b60006020820190508181036000830152610c1881610bdc565b9050919050565b7f4e487b7100000000000000000000000000000000000000000000000000000000600052601160045260246000fd5b6000610c59826106e5565b91506000821415610c6d57610c6c610c1f565b5b600182039050919050565b6000610c83826106e5565b91507fffffffffffffffffffffffffffffffffffffffffffffffffffffffffffffffff821415610cb657610cb5610c1f565b5b60018201905091905056fea2646970667358221220f21dca70910db8773d007ad7e10115225a0a403804fd8c35ff107333c4ed089364736f6c634300080b0033",
  "immutableReferences": {},
  "source": "// SPDX-License-Identifier: MIT\npragma solidity ^0.8.11;\n\nimport \"./ERC721.sol\";\n\ncontract ERC721Enumerable is ERC721 {\n    uint256[] private _allTokens;\n\n    // mapping from tokenId to position in _allToken array\n    mapping(uint256 => uint256) private _allTokensIndex;\n\n    // mapping of owner to list of all owner tokens\n    mapping(address => uint256[]) private _ownedTokens;\n\n    // mapping from token ID to index of the owner tokens list\n    mapping(uint256 => uint256) private _ownedTokenIndex;\n\n    /// @notice Count NFTs tracked by this contract\n    /// @return A count of valid NFTs tracked by this contract, where each one of\n    ///  them has an assigned and queryable owner not equal to the zero address\n    function totalSupply() public view returns (uint256) {\n        return _allTokens.length;\n    }\n\n    function _mint(address _to, uint256 _tokenId) internal override(ERC721) {\n        super._mint(_to, _tokenId);\n        _addTokensToOwnerEnumeration(_to, _tokenId);\n        _addTokensToAllTokenEnumeration(_tokenId);\n    }\n\n    // add token to the _allToken array and set the position of the token\n    function _addTokensToAllTokenEnumeration(uint256 tokenId) private {\n        _allTokensIndex[tokenId] = _allTokens.length;\n        _allTokens.push(tokenId);\n    }\n\n    function _addTokensToOwnerEnumeration(address to, uint256 tokenId) private {\n        _ownedTokens[to].push(tokenId);\n        _ownedTokenIndex[tokenId] = _ownedTokens[to].length;\n    }\n\n    function tokenByIndex(uint256 index) public view returns (uint256) {\n        require(index < totalSupply(), \"Global index is out of bounds!\");\n        return _allTokens[index];\n    }\n\n    function tokenOfOwnerByIndex(address owner, uint256 index)\n        public\n        view\n        returns (uint256)\n    {\n        require(index < balanceOf(owner), \"Owner index is out of bounds!\");\n        return _ownedTokens[owner][index];\n    }\n}\n",
  "sourcePath": "/Users/navinalang/nft-marketplace-starter-kit/src/contracts/ERC721Enumerable.sol",
  "compiler": {
    "name": "solc",
    "version": "0.8.11+commit.d7f03943.Emscripten.clang"
  },
  "schemaVersion": "3.4.4",
  "updatedAt": "2022-01-25T23:38:13.606Z",
  "devdoc": {
    "kind": "dev",
    "methods": {
      "balanceOf(address)": {
        "details": "NFTs assigned to the zero address are considered invalid, and this  function throws for queries about the zero address.",
        "params": {
          "_owner": "An address for whom to query the balance"
        },
        "returns": {
          "_0": "The number of NFTs owned by `_owner`, possibly zero"
        }
      },
      "ownerOf(uint256)": {
        "details": "NFTs assigned to zero address are considered invalid, and queries  about them do throw.",
        "params": {
          "_tokenId": "The identifier for an NFT"
        },
        "returns": {
          "_0": "The address of the owner of the NFT"
        }
      },
      "totalSupply()": {
        "returns": {
          "_0": "A count of valid NFTs tracked by this contract, where each one of  them has an assigned and queryable owner not equal to the zero address"
        }
      }
    },
    "version": 1
  },
  "userdoc": {
    "kind": "user",
    "methods": {
      "balanceOf(address)": {
        "notice": "Count all NFTs assigned to an owner"
      },
      "ownerOf(uint256)": {
        "notice": "Find the owner of an NFT"
      },
      "totalSupply()": {
        "notice": "Count NFTs tracked by this contract"
      }
    },
    "version": 1
  }
}