{
  "contractName": "ERC721",
  "abi": [
    {
      "inputs": [],
      "stateMutability": "nonpayable",
      "type": "constructor"
    },
    {
      "anonymous": false,
      "inputs": [
        {
          "indexed": true,
          "internalType": "address",
          "name": "_owner",
          "type": "address"
        },
        {
          "indexed": true,
          "internalType": "address",
          "name": "_approved",
          "type": "address"
        },
        {
          "indexed": true,
          "internalType": "uint256",
          "name": "_tokenId",
          "type": "uint256"
        }
      ],
      "name": "Approval",
      "type": "event"
    },
    {
      "anonymous": false,
      "inputs": [
        {
          "indexed": true,
          "internalType": "address",
          "name": "_from",
          "type": "address"
        },
        {
          "indexed": true,
          "internalType": "address",
          "name": "_to",
          "type": "address"
        },
        {
          "indexed": true,
          "internalType": "uint256",
          "name": "_tokenId",
          "type": "uint256"
        }
      ],
      "name": "Transfer",
      "type": "event"
    },
    {
      "inputs": [
        {
          "internalType": "bytes4",
          "name": "interfaceId",
          "type": "bytes4"
        }
      ],
      "name": "supportsInterface",
      "outputs": [
        {
          "internalType": "bool",
          "name": "",
          "type": "bool"
        }
      ],
      "stateMutability": "view",
      "type": "function"
    },
    {
      "inputs": [
        {
          "internalType": "address",
          "name": "_owner",
          "type": "address"
        }
      ],
      "name": "balanceOf",
      "outputs": [
        {
          "internalType": "uint256",
          "name": "",
          "type": "uint256"
        }
      ],
      "stateMutability": "view",
      "type": "function"
    },
    {
      "inputs": [
        {
          "internalType": "uint256",
          "name": "_tokenId",
          "type": "uint256"
        }
      ],
      "name": "ownerOf",
      "outputs": [
        {
          "internalType": "address",
          "name": "",
          "type": "address"
        }
      ],
      "stateMutability": "view",
      "type": "function"
    },
    {
      "inputs": [
        {
          "internalType": "address",
          "name": "_from",
          "type": "address"
        },
        {
          "internalType": "address",
          "name": "_to",
          "type": "address"
        },
        {
          "internalType": "uint256",
          "name": "_tokenId",
          "type": "uint256"
        }
      ],
      "name": "transferFrom",
      "outputs": [],
      "stateMutability": "nonpayable",
      "type": "function"
    }
  ],
  "bytecode": "0x608060405234801561001057600080fd5b506100407f01ffc9a7a5cef8baa21ed3c5c0d7e23accb804b619e9333b597f47a0d84076e261007460201b60201c565b61006f7f3cf75faf24b5f24fd69708e6887a8930af709fc1a0e8f51613e72beabe6dcf0861007460201b60201c565b6101c6565b63ffffffff60e01b817bffffffffffffffffffffffffffffffffffffffffffffffffffffffff191614156100dd576040517f08c379a00000000000000000000000000000000000000000000000000000000081526004016100d4906101a6565b60405180910390fd5b6001600080837bffffffffffffffffffffffffffffffffffffffffffffffffffffffff19167bffffffffffffffffffffffffffffffffffffffffffffffffffffffff1916815260200190815260200160002060006101000a81548160ff02191690831515021790555050565b600082825260208201905092915050565b7f496e76616c696420696e74657266616365207265716575657374000000000000600082015250565b6000610190601a83610149565b915061019b8261015a565b602082019050919050565b600060208201905081810360008301526101bf81610183565b9050919050565b610b43806101d56000396000f3fe608060405234801561001057600080fd5b506004361061004c5760003560e01c806301ffc9a71461005157806323b872dd146100815780636352211e1461009d57806370a08231146100cd575b600080fd5b61006b6004803603810190610066919061061a565b6100fd565b6040516100789190610662565b60405180910390f35b61009b60048036038101906100969190610711565b610164565b005b6100b760048036038101906100b29190610764565b610174565b6040516100c491906107a0565b60405180910390f35b6100e760048036038101906100e291906107bb565b610253565b6040516100f491906107f7565b60405180910390f35b6000806000837bffffffffffffffffffffffffffffffffffffffffffffffffffffffff19167bffffffffffffffffffffffffffffffffffffffffffffffffffffffff1916815260200190815260200160002060009054906101000a900460ff169050919050565b61016f83838361030b565b505050565b60008073ffffffffffffffffffffffffffffffffffffffff166001600084815260200190815260200160002060009054906101000a900473ffffffffffffffffffffffffffffffffffffffff1673ffffffffffffffffffffffffffffffffffffffff161415610218576040517f08c379a000000000000000000000000000000000000000000000000000000000815260040161020f90610895565b60405180910390fd5b6001600083815260200190815260200160002060009054906101000a900473ffffffffffffffffffffffffffffffffffffffff169050919050565b60008073ffffffffffffffffffffffffffffffffffffffff168273ffffffffffffffffffffffffffffffffffffffff1614156102c4576040517f08c379a00000000000000000000000000000000000000000000000000000000081526004016102bb90610895565b60405180910390fd5b600260008373ffffffffffffffffffffffffffffffffffffffff1673ffffffffffffffffffffffffffffffffffffffff168152602001908152602001600020549050919050565b600073ffffffffffffffffffffffffffffffffffffffff168273ffffffffffffffffffffffffffffffffffffffff16141561037b576040517f08c379a000000000000000000000000000000000000000000000000000000000815260040161037290610927565b60405180910390fd5b600073ffffffffffffffffffffffffffffffffffffffff168373ffffffffffffffffffffffffffffffffffffffff1614156103eb576040517f08c379a00000000000000000000000000000000000000000000000000000000081526004016103e2906109b9565b60405180910390fd5b8273ffffffffffffffffffffffffffffffffffffffff1661040b82610174565b73ffffffffffffffffffffffffffffffffffffffff1614610461576040517f08c379a000000000000000000000000000000000000000000000000000000000815260040161045890610a4b565b60405180910390fd5b816001600083815260200190815260200160002060006101000a81548173ffffffffffffffffffffffffffffffffffffffff021916908373ffffffffffffffffffffffffffffffffffffffff160217905550600260008473ffffffffffffffffffffffffffffffffffffffff1673ffffffffffffffffffffffffffffffffffffffff168152602001908152602001600020600081548092919061050390610a9a565b9190505550600260008373ffffffffffffffffffffffffffffffffffffffff1673ffffffffffffffffffffffffffffffffffffffff168152602001908152602001600020600081548092919061055890610ac4565b9190505550808273ffffffffffffffffffffffffffffffffffffffff168473ffffffffffffffffffffffffffffffffffffffff167fddf252ad1be2c89b69c2b068fc378daa952ba7f163c4a11628f55a4df523b3ef60405160405180910390a4505050565b600080fd5b60007fffffffff0000000000000000000000000000000000000000000000000000000082169050919050565b6105f7816105c2565b811461060257600080fd5b50565b600081359050610614816105ee565b92915050565b6000602082840312156106305761062f6105bd565b5b600061063e84828501610605565b91505092915050565b60008115159050919050565b61065c81610647565b82525050565b60006020820190506106776000830184610653565b92915050565b600073ffffffffffffffffffffffffffffffffffffffff82169050919050565b60006106a88261067d565b9050919050565b6106b88161069d565b81146106c357600080fd5b50565b6000813590506106d5816106af565b92915050565b6000819050919050565b6106ee816106db565b81146106f957600080fd5b50565b60008135905061070b816106e5565b92915050565b60008060006060848603121561072a576107296105bd565b5b6000610738868287016106c6565b9350506020610749868287016106c6565b925050604061075a868287016106fc565b9150509250925092565b60006020828403121561077a576107796105bd565b5b6000610788848285016106fc565b91505092915050565b61079a8161069d565b82525050565b60006020820190506107b56000830184610791565b92915050565b6000602082840312156107d1576107d06105bd565b5b60006107df848285016106c6565b91505092915050565b6107f1816106db565b82525050565b600060208201905061080c60008301846107e8565b92915050565b600082825260208201905092915050565b7f4f776e657220717565727920666f72206e6f6e2d6578697374656e7420746f6b60008201527f656e000000000000000000000000000000000000000000000000000000000000602082015250565b600061087f602283610812565b915061088a82610823565b604082019050919050565b600060208201905081810360008301526108ae81610872565b9050919050565b7f4572726f72202d207472616e7366657220746f2061207a65726f20616464726560008201527f7373000000000000000000000000000000000000000000000000000000000000602082015250565b6000610911602283610812565b915061091c826108b5565b604082019050919050565b6000602082019050818103600083015261094081610904565b9050919050565b7f4572726f72202d207472616e736665722066726f6d2061207a65726f2061646460008201527f7265737300000000000000000000000000000000000000000000000000000000602082015250565b60006109a3602483610812565b91506109ae82610947565b604082019050919050565b600060208201905081810360008301526109d281610996565b9050919050565b7f547279696e6720746f207472616e73666572206120746f6b656e20746865207360008201527f656e64657220646f6573206e6f74206f776e0000000000000000000000000000602082015250565b6000610a35603283610812565b9150610a40826109d9565b604082019050919050565b60006020820190508181036000830152610a6481610a28565b9050919050565b7f4e487b7100000000000000000000000000000000000000000000000000000000600052601160045260246000fd5b6000610aa5826106db565b91506000821415610ab957610ab8610a6b565b5b600182039050919050565b6000610acf826106db565b91507fffffffffffffffffffffffffffffffffffffffffffffffffffffffffffffffff821415610b0257610b01610a6b565b5b60018201905091905056fea26469706673582212202df0b0455fd6594e991feb097baed65b3241ff1be9dc197d3e69ba4d116d996b64736f6c634300080b0033",
  "immutableReferences": {},
  "source": "// SPDX-License-Identifier: MIT\npragma solidity ^0.8.11;\n\nimport \"./ERC165.sol\";\nimport \"./interfaces/IERC721.sol\";\n\n/*  \n    a. NFT to point to an address\n    b. Keep track of the token ids\n    c. Keep track of tocken owner addresses to token ids\n    d. Keep track of how many tokens an owner address has\n    e. Create an event that emits a transfer log - contract address, where it is being minted to, the id \n    */\n\ncontract ERC721 is ERC165, IERC721 {\n    /*event Approval(\n        address indexed owner,\n        address indexed approved,\n        uint256 indexed tokenId\n    );*/\n\n    // Mapping from token id to the owner\n    mapping(uint256 => address) private _tokenOwner;\n\n    // Mapping from owner to number of owned tokens\n    mapping(address => uint256) private _numberOfTokens;\n\n    // Mapping from tokenId to approved addresses\n    mapping(uint256 => address) private _tokenApprovals;\n\n    constructor() {\n        _registerInterface(\n            bytes4(\n                keccak256(\n                    \"balanceOf(bytes4)^ownerOf(bytes4)^transferFrom(bytes4)\"\n                )\n            )\n        );\n    }\n\n    function balanceOf(address _owner) public view returns (uint256) {\n        require(_owner != address(0), \"Owner query for non-existent token\");\n        return _numberOfTokens[_owner];\n    }\n\n    /// @notice Find the owner of an NFT\n    /// @dev NFTs assigned to zero address are considered invalid, and queries\n    ///  about them do throw.\n    /// @param _tokenId The identifier for an NFT\n    /// @return The address of the owner of the NFT\n    function ownerOf(uint256 _tokenId) public view override returns (address) {\n        require(\n            _tokenOwner[_tokenId] != address(0),\n            \"Owner query for non-existent token\"\n        );\n        return _tokenOwner[_tokenId];\n    }\n\n    function exists(uint256 _tokenId) internal view returns (bool) {\n        address owner = _tokenOwner[_tokenId];\n        return owner != address(0);\n    }\n\n    function _mint(address _to, uint256 _tokenId) internal virtual {\n        // requires that the address isn't zero\n        require(_to != address(0), \"ERC721 minting to the zero address\");\n        // requires that the token does not already exists\n        require(!exists(_tokenId));\n        // we are adding a new address with a token id for minting\n        _tokenOwner[_tokenId] = _to;\n        // keeping track of each address that is minting and adding\n        _numberOfTokens[_to]++;\n\n        emit Transfer(address(0), _to, _tokenId);\n    }\n\n    /// @notice Transfer ownership of an NFT -- THE CALLER IS RESPONSIBLE\n    ///  TO CONFIRM THAT `_to` IS CAPABLE OF RECEIVING NFTS OR ELSE\n    ///  THEY MAY BE PERMANENTLY LOST\n    /// @dev Throws unless `msg.sender` is the current owner, an authorized\n    ///  operator, or the approved address for this NFT. Throws if `_from` is\n    ///  not the current owner. Throws if `_to` is the zero address. Throws if\n    ///  `_tokenId` is not a valid NFT.\n    /// @param _from The current owner of the NFT\n    /// @param _to The new owner\n    /// @param _tokenId The NFT to transfer\n    function _transferFrom(\n        address _from,\n        address _to,\n        uint256 _tokenId\n    ) internal {\n        require(_to != address(0), \"Error - transfer to a zero address\");\n        require(_from != address(0), \"Error - transfer from a zero address\");\n        require(\n            ownerOf(_tokenId) == _from,\n            \"Trying to transfer a token the sender does not own\"\n        );\n        _tokenOwner[_tokenId] = _to;\n        _numberOfTokens[_from]--;\n        _numberOfTokens[_to]++;\n\n        emit Transfer(_from, _to, _tokenId);\n    }\n\n    function transferFrom(\n        address _from,\n        address _to,\n        uint256 _tokenId\n    ) public override {\n        //require(isApprovedOrOwner(msg.sender, _tokenId));\n        _transferFrom(_from, _to, _tokenId);\n    }\n\n    /*function approve(address _to, uint256 tokenId) public {\n        address owner = ownerOf(tokenId);\n        require(owner == _to, \"Aprroval to current owner\");\n        require(\n            msg.sender == owner,\n            \"Current caller is not the owner of the token\"\n        );\n        _tokenApprovals[tokenId] = _to;\n\n        emit Approval(owner, _to, tokenId);\n    }\n\n    function isApprovedOrOwner(address spender, uint256 tokenId)\n        internal\n        view\n        returns (bool)\n    {\n        address owner = ownerOf(tokenId);\n        // || getApproved(spender) - does not exist here, exists in openzeppelin\n        return (spender == owner);\n    }*/\n}\n",
  "sourcePath": "/Users/navinalang/nft-marketplace/src/contracts/ERC721.sol",
  "compiler": {
    "name": "solc",
    "version": "0.8.11+commit.d7f03943.Emscripten.clang"
  },
  "schemaVersion": "3.4.4",
  "updatedAt": "2022-01-28T16:39:38.462Z",
  "devdoc": {
    "kind": "dev",
    "methods": {
      "ownerOf(uint256)": {
        "details": "NFTs assigned to zero address are considered invalid, and queries  about them do throw.",
        "params": {
          "_tokenId": "The identifier for an NFT"
        },
        "returns": {
          "_0": "The address of the owner of the NFT"
        }
      }
    },
    "version": 1
  },
  "userdoc": {
    "kind": "user",
    "methods": {
      "ownerOf(uint256)": {
        "notice": "Find the owner of an NFT"
      }
    },
    "version": 1
  }
}