{
  "contractName": "ERC721Connector",
  "abi": [
    {
      "inputs": [
        {
          "internalType": "string",
          "name": "name",
          "type": "string"
        },
        {
          "internalType": "string",
          "name": "symbol",
          "type": "string"
        }
      ],
      "stateMutability": "nonpayable",
      "type": "constructor"
    },
    {
      "anonymous": false,
      "inputs": [
        {
          "indexed": true,
          "internalType": "address",
          "name": "_owner",
          "type": "address"
        },
        {
          "indexed": true,
          "internalType": "address",
          "name": "_approved",
          "type": "address"
        },
        {
          "indexed": true,
          "internalType": "uint256",
          "name": "_tokenId",
          "type": "uint256"
        }
      ],
      "name": "Approval",
      "type": "event"
    },
    {
      "anonymous": false,
      "inputs": [
        {
          "indexed": true,
          "internalType": "address",
          "name": "_from",
          "type": "address"
        },
        {
          "indexed": true,
          "internalType": "address",
          "name": "_to",
          "type": "address"
        },
        {
          "indexed": true,
          "internalType": "uint256",
          "name": "_tokenId",
          "type": "uint256"
        }
      ],
      "name": "Transfer",
      "type": "event"
    },
    {
      "inputs": [
        {
          "internalType": "address",
          "name": "_owner",
          "type": "address"
        }
      ],
      "name": "balanceOf",
      "outputs": [
        {
          "internalType": "uint256",
          "name": "",
          "type": "uint256"
        }
      ],
      "stateMutability": "view",
      "type": "function"
    },
    {
      "inputs": [],
      "name": "name",
      "outputs": [
        {
          "internalType": "string",
          "name": "",
          "type": "string"
        }
      ],
      "stateMutability": "view",
      "type": "function"
    },
    {
      "inputs": [
        {
          "internalType": "uint256",
          "name": "_tokenId",
          "type": "uint256"
        }
      ],
      "name": "ownerOf",
      "outputs": [
        {
          "internalType": "address",
          "name": "",
          "type": "address"
        }
      ],
      "stateMutability": "view",
      "type": "function"
    },
    {
      "inputs": [
        {
          "internalType": "bytes4",
          "name": "interfaceId",
          "type": "bytes4"
        }
      ],
      "name": "supportsInterface",
      "outputs": [
        {
          "internalType": "bool",
          "name": "",
          "type": "bool"
        }
      ],
      "stateMutability": "view",
      "type": "function"
    },
    {
      "inputs": [],
      "name": "symbol",
      "outputs": [
        {
          "internalType": "string",
          "name": "",
          "type": "string"
        }
      ],
      "stateMutability": "view",
      "type": "function"
    },
    {
      "inputs": [
        {
          "internalType": "uint256",
          "name": "index",
          "type": "uint256"
        }
      ],
      "name": "tokenByIndex",
      "outputs": [
        {
          "internalType": "uint256",
          "name": "",
          "type": "uint256"
        }
      ],
      "stateMutability": "view",
      "type": "function"
    },
    {
      "inputs": [
        {
          "internalType": "address",
          "name": "owner",
          "type": "address"
        },
        {
          "internalType": "uint256",
          "name": "index",
          "type": "uint256"
        }
      ],
      "name": "tokenOfOwnerByIndex",
      "outputs": [
        {
          "internalType": "uint256",
          "name": "",
          "type": "uint256"
        }
      ],
      "stateMutability": "view",
      "type": "function"
    },
    {
      "inputs": [],
      "name": "totalSupply",
      "outputs": [
        {
          "internalType": "uint256",
          "name": "",
          "type": "uint256"
        }
      ],
      "stateMutability": "view",
      "type": "function"
    },
    {
      "inputs": [
        {
          "internalType": "address",
          "name": "_from",
          "type": "address"
        },
        {
          "internalType": "address",
          "name": "_to",
          "type": "address"
        },
        {
          "internalType": "uint256",
          "name": "_tokenId",
          "type": "uint256"
        }
      ],
      "name": "transferFrom",
      "outputs": [],
      "stateMutability": "nonpayable",
      "type": "function"
    }
  ],
  "bytecode": "0x60806040523480156200001157600080fd5b506040516200188938038062001889833981810160405281019062000037919062000508565b81816200006a7f01ffc9a7a5cef8baa21ed3c5c0d7e23accb804b619e9333b597f47a0d84076e2620001e360201b60201c565b816001908051906020019062000082929190620002bb565b5080600290805190602001906200009b929190620002bb565b50620000ef7f13b182f4c0e5b2efbac0efe6cf6d756c8b89f4b79c5707a043ed9ea740574ee97f7feaf19471f34a12a7eaf32d5f3090aa2260ea8624dc8a138e74e0bf0f62307618620001e360201b60201c565b5050620001667f22c82707ba960a14c7592ffb6b8cfaa073fed0048a84cc7fa41f6b5bd8e7f2e47f3a6eb71757dfc6e784c1459d26270140c2c147d95ca985c80026fc5301c3eca17f8a7e378434598edc36d108689a030cbc9d7d465de4f74c71bae1028eed6a881b1818620001e360201b60201c565b620001db7f8230223f691b981717299fae9549350a0d894555723531f02108b1f522c1a7977f6da5e1284143cdd2d15038a59bde3be031250f00291d64494c12d967b3a4e0c37fc53637662700e6c65104059db8bba34439e0c32483ab7c34e3ccae52c73954951818620001e360201b60201c565b505062000675565b63ffffffff60e01b817bffffffffffffffffffffffffffffffffffffffffffffffffffffffff191614156200024f576040517f08c379a00000000000000000000000000000000000000000000000000000000081526004016200024690620005ee565b60405180910390fd5b6001600080837bffffffffffffffffffffffffffffffffffffffffffffffffffffffff19167bffffffffffffffffffffffffffffffffffffffffffffffffffffffff1916815260200190815260200160002060006101000a81548160ff02191690831515021790555050565b828054620002c9906200063f565b90600052602060002090601f016020900481019282620002ed576000855562000339565b82601f106200030857805160ff191683800117855562000339565b8280016001018555821562000339579182015b82811115620003385782518255916020019190600101906200031b565b5b5090506200034891906200034c565b5090565b5b80821115620003675760008160009055506001016200034d565b5090565b6000604051905090565b600080fd5b600080fd5b600080fd5b600080fd5b6000601f19601f8301169050919050565b7f4e487b7100000000000000000000000000000000000000000000000000000000600052604160045260246000fd5b620003d48262000389565b810181811067ffffffffffffffff82111715620003f657620003f56200039a565b5b80604052505050565b60006200040b6200036b565b9050620004198282620003c9565b919050565b600067ffffffffffffffff8211156200043c576200043b6200039a565b5b620004478262000389565b9050602081019050919050565b60005b838110156200047457808201518184015260208101905062000457565b8381111562000484576000848401525b50505050565b6000620004a16200049b846200041e565b620003ff565b905082815260208101848484011115620004c057620004bf62000384565b5b620004cd84828562000454565b509392505050565b600082601f830112620004ed57620004ec6200037f565b5b8151620004ff8482602086016200048a565b91505092915050565b6000806040838503121562000522576200052162000375565b5b600083015167ffffffffffffffff8111156200054357620005426200037a565b5b6200055185828601620004d5565b925050602083015167ffffffffffffffff8111156200057557620005746200037a565b5b6200058385828601620004d5565b9150509250929050565b600082825260208201905092915050565b7f496e76616c696420696e74657266616365207265716575657374000000000000600082015250565b6000620005d6601a836200058d565b9150620005e3826200059e565b602082019050919050565b600060208201905081810360008301526200060981620005c7565b9050919050565b7f4e487b7100000000000000000000000000000000000000000000000000000000600052602260045260246000fd5b600060028204905060018216806200065857607f821691505b602082108114156200066f576200066e62000610565b5b50919050565b61120480620006856000396000f3fe608060405234801561001057600080fd5b50600436106100935760003560e01c80632f745c59116100665780632f745c59146101205780634f6ccce7146101505780636352211e1461018057806370a08231146101b057806395d89b41146101e057610093565b806301ffc9a71461009857806306fdde03146100c857806318160ddd146100e657806323b872dd14610104575b600080fd5b6100b260048036038101906100ad9190610a06565b6101fe565b6040516100bf9190610a4e565b60405180910390f35b6100d0610265565b6040516100dd9190610b02565b60405180910390f35b6100ee6102f7565b6040516100fb9190610b3d565b60405180910390f35b61011e60048036038101906101199190610be2565b610304565b005b61013a60048036038101906101359190610c35565b610314565b6040516101479190610b3d565b60405180910390f35b61016a60048036038101906101659190610c75565b6103c4565b6040516101779190610b3d565b60405180910390f35b61019a60048036038101906101959190610c75565b610435565b6040516101a79190610cb1565b60405180910390f35b6101ca60048036038101906101c59190610ccc565b610514565b6040516101d79190610b3d565b60405180910390f35b6101e86105d3565b6040516101f59190610b02565b60405180910390f35b6000806000837bffffffffffffffffffffffffffffffffffffffffffffffffffffffff19167bffffffffffffffffffffffffffffffffffffffffffffffffffffffff1916815260200190815260200160002060009054906101000a900460ff169050919050565b60606001805461027490610d28565b80601f01602080910402602001604051908101604052809291908181526020018280546102a090610d28565b80156102ed5780601f106102c2576101008083540402835291602001916102ed565b820191906000526020600020905b8154815290600101906020018083116102d057829003601f168201915b5050505050905090565b6000600680549050905090565b61030f838383610665565b505050565b600061031f83610514565b8210610360576040517f08c379a000000000000000000000000000000000000000000000000000000000815260040161035790610da6565b60405180910390fd5b600860008473ffffffffffffffffffffffffffffffffffffffff1673ffffffffffffffffffffffffffffffffffffffff16815260200190815260200160002082815481106103b1576103b0610dc6565b5b9060005260206000200154905092915050565b60006103ce6102f7565b821061040f576040517f08c379a000000000000000000000000000000000000000000000000000000000815260040161040690610e41565b60405180910390fd5b6006828154811061042357610422610dc6565b5b90600052602060002001549050919050565b60008073ffffffffffffffffffffffffffffffffffffffff166003600084815260200190815260200160002060009054906101000a900473ffffffffffffffffffffffffffffffffffffffff1673ffffffffffffffffffffffffffffffffffffffff1614156104d9576040517f08c379a00000000000000000000000000000000000000000000000000000000081526004016104d090610ed3565b60405180910390fd5b6003600083815260200190815260200160002060009054906101000a900473ffffffffffffffffffffffffffffffffffffffff169050919050565b60008073ffffffffffffffffffffffffffffffffffffffff168273ffffffffffffffffffffffffffffffffffffffff161415610585576040517f08c379a000000000000000000000000000000000000000000000000000000000815260040161057c90610ed3565b60405180910390fd5b6105cc600460008473ffffffffffffffffffffffffffffffffffffffff1673ffffffffffffffffffffffffffffffffffffffff1681526020019081526020016000206108fb565b9050919050565b6060600280546105e290610d28565b80601f016020809104026020016040519081016040528092919081815260200182805461060e90610d28565b801561065b5780601f106106305761010080835404028352916020019161065b565b820191906000526020600020905b81548152906001019060200180831161063e57829003601f168201915b5050505050905090565b600073ffffffffffffffffffffffffffffffffffffffff168273ffffffffffffffffffffffffffffffffffffffff1614156106d5576040517f08c379a00000000000000000000000000000000000000000000000000000000081526004016106cc90610f65565b60405180910390fd5b600073ffffffffffffffffffffffffffffffffffffffff168373ffffffffffffffffffffffffffffffffffffffff161415610745576040517f08c379a000000000000000000000000000000000000000000000000000000000815260040161073c90610ff7565b60405180910390fd5b8273ffffffffffffffffffffffffffffffffffffffff1661076582610435565b73ffffffffffffffffffffffffffffffffffffffff16146107bb576040517f08c379a00000000000000000000000000000000000000000000000000000000081526004016107b290611089565b60405180910390fd5b816003600083815260200190815260200160002060006101000a81548173ffffffffffffffffffffffffffffffffffffffff021916908373ffffffffffffffffffffffffffffffffffffffff160217905550610854600460008573ffffffffffffffffffffffffffffffffffffffff1673ffffffffffffffffffffffffffffffffffffffff168152602001908152602001600020610909565b61089b600460008473ffffffffffffffffffffffffffffffffffffffff1673ffffffffffffffffffffffffffffffffffffffff16815260200190815260200160002061092c565b808273ffffffffffffffffffffffffffffffffffffffff168473ffffffffffffffffffffffffffffffffffffffff167fddf252ad1be2c89b69c2b068fc378daa952ba7f163c4a11628f55a4df523b3ef60405160405180910390a4505050565b600081600001549050919050565b6109216001826000015461094b90919063ffffffff16565b816000018190555050565b600181600001600082825461094191906110d8565b9250508190555050565b600080828461095a919061112e565b90508383111561099f576040517f08c379a0000000000000000000000000000000000000000000000000000000008152600401610996906111ae565b60405180910390fd5b8091505092915050565b600080fd5b60007fffffffff0000000000000000000000000000000000000000000000000000000082169050919050565b6109e3816109ae565b81146109ee57600080fd5b50565b600081359050610a00816109da565b92915050565b600060208284031215610a1c57610a1b6109a9565b5b6000610a2a848285016109f1565b91505092915050565b60008115159050919050565b610a4881610a33565b82525050565b6000602082019050610a636000830184610a3f565b92915050565b600081519050919050565b600082825260208201905092915050565b60005b83811015610aa3578082015181840152602081019050610a88565b83811115610ab2576000848401525b50505050565b6000601f19601f8301169050919050565b6000610ad482610a69565b610ade8185610a74565b9350610aee818560208601610a85565b610af781610ab8565b840191505092915050565b60006020820190508181036000830152610b1c8184610ac9565b905092915050565b6000819050919050565b610b3781610b24565b82525050565b6000602082019050610b526000830184610b2e565b92915050565b600073ffffffffffffffffffffffffffffffffffffffff82169050919050565b6000610b8382610b58565b9050919050565b610b9381610b78565b8114610b9e57600080fd5b50565b600081359050610bb081610b8a565b92915050565b610bbf81610b24565b8114610bca57600080fd5b50565b600081359050610bdc81610bb6565b92915050565b600080600060608486031215610bfb57610bfa6109a9565b5b6000610c0986828701610ba1565b9350506020610c1a86828701610ba1565b9250506040610c2b86828701610bcd565b9150509250925092565b60008060408385031215610c4c57610c4b6109a9565b5b6000610c5a85828601610ba1565b9250506020610c6b85828601610bcd565b9150509250929050565b600060208284031215610c8b57610c8a6109a9565b5b6000610c9984828501610bcd565b91505092915050565b610cab81610b78565b82525050565b6000602082019050610cc66000830184610ca2565b92915050565b600060208284031215610ce257610ce16109a9565b5b6000610cf084828501610ba1565b91505092915050565b7f4e487b7100000000000000000000000000000000000000000000000000000000600052602260045260246000fd5b60006002820490506001821680610d4057607f821691505b60208210811415610d5457610d53610cf9565b5b50919050565b7f4f776e657220696e646578206973206f7574206f6620626f756e647321000000600082015250565b6000610d90601d83610a74565b9150610d9b82610d5a565b602082019050919050565b60006020820190508181036000830152610dbf81610d83565b9050919050565b7f4e487b7100000000000000000000000000000000000000000000000000000000600052603260045260246000fd5b7f476c6f62616c20696e646578206973206f7574206f6620626f756e6473210000600082015250565b6000610e2b601e83610a74565b9150610e3682610df5565b602082019050919050565b60006020820190508181036000830152610e5a81610e1e565b9050919050565b7f4f776e657220717565727920666f72206e6f6e2d6578697374656e7420746f6b60008201527f656e000000000000000000000000000000000000000000000000000000000000602082015250565b6000610ebd602283610a74565b9150610ec882610e61565b604082019050919050565b60006020820190508181036000830152610eec81610eb0565b9050919050565b7f4572726f72202d207472616e7366657220746f2061207a65726f20616464726560008201527f7373000000000000000000000000000000000000000000000000000000000000602082015250565b6000610f4f602283610a74565b9150610f5a82610ef3565b604082019050919050565b60006020820190508181036000830152610f7e81610f42565b9050919050565b7f4572726f72202d207472616e736665722066726f6d2061207a65726f2061646460008201527f7265737300000000000000000000000000000000000000000000000000000000602082015250565b6000610fe1602483610a74565b9150610fec82610f85565b604082019050919050565b6000602082019050818103600083015261101081610fd4565b9050919050565b7f547279696e6720746f207472616e73666572206120746f6b656e20746865207360008201527f656e64657220646f6573206e6f74206f776e0000000000000000000000000000602082015250565b6000611073603283610a74565b915061107e82611017565b604082019050919050565b600060208201905081810360008301526110a281611066565b9050919050565b7f4e487b7100000000000000000000000000000000000000000000000000000000600052601160045260246000fd5b60006110e382610b24565b91506110ee83610b24565b9250827fffffffffffffffffffffffffffffffffffffffffffffffffffffffffffffffff03821115611123576111226110a9565b5b828201905092915050565b600061113982610b24565b915061114483610b24565b925082821015611157576111566110a9565b5b828203905092915050565b7f536166654d6174683a20737562737472616374696f6e206f766572666c6f7700600082015250565b6000611198601f83610a74565b91506111a382611162565b602082019050919050565b600060208201905081810360008301526111c78161118b565b905091905056fea264697066735822122068e7a47a91e1118d38a3566800a948623b5e0251d756e2983100d9565f769ee264736f6c634300080b0033",
  "immutableReferences": {},
  "source": "// SPDX-License-Identifier: MIT\npragma solidity ^0.8.11;\n\nimport \"./ERC721Metadata.sol\";\nimport \"./ERC721Enumerable.sol\";\n\ncontract ERC721Connector is ERC721Metadata, ERC721Enumerable {\n    constructor(string memory name, string memory symbol)\n        ERC721Metadata(name, symbol)\n    {}\n}\n",
  "sourcePath": "/Users/navinalang/nft-marketplace/src/contracts/ERC721Connector.sol",
  "compiler": {
    "name": "solc",
    "version": "0.8.11+commit.d7f03943.Emscripten.clang"
  },
  "schemaVersion": "3.4.4",
  "updatedAt": "2022-01-29T05:06:47.017Z",
  "devdoc": {
    "kind": "dev",
    "methods": {
      "ownerOf(uint256)": {
        "details": "NFTs assigned to zero address are considered invalid, and queries  about them do throw.",
        "params": {
          "_tokenId": "The identifier for an NFT"
        },
        "returns": {
          "_0": "The address of the owner of the NFT"
        }
      }
    },
    "version": 1
  },
  "userdoc": {
    "kind": "user",
    "methods": {
      "ownerOf(uint256)": {
        "notice": "Find the owner of an NFT"
      }
    },
    "version": 1
  }
}